{
  "_format": "hh3-artifact-1",
  "contractName": "GhostFactory",
  "sourceName": "contracts/GhostWalletFactory.sol",
  "abi": [
    {
      "inputs": [
        {
          "internalType": "address",
          "name": "_entryPoint",
          "type": "address"
        }
      ],
      "stateMutability": "nonpayable",
      "type": "constructor"
    },
    {
      "anonymous": false,
      "inputs": [
        {
          "indexed": false,
          "internalType": "address",
          "name": "wallet",
          "type": "address"
        },
        {
          "indexed": false,
          "internalType": "address",
          "name": "owner",
          "type": "address"
        }
      ],
      "name": "GhostCreated",
      "type": "event"
    },
    {
      "inputs": [
        {
          "internalType": "address",
          "name": "owner",
          "type": "address"
        }
      ],
      "name": "createGhost",
      "outputs": [
        {
          "internalType": "address",
          "name": "",
          "type": "address"
        }
      ],
      "stateMutability": "payable",
      "type": "function"
    },
    {
      "inputs": [],
      "name": "entryPoint",
      "outputs": [
        {
          "internalType": "address",
          "name": "",
          "type": "address"
        }
      ],
      "stateMutability": "view",
      "type": "function"
    },
    {
      "inputs": [
        {
          "internalType": "address",
          "name": "owner",
          "type": "address"
        }
      ],
      "name": "getUserWallets",
      "outputs": [
        {
          "internalType": "address[]",
          "name": "",
          "type": "address[]"
        }
      ],
      "stateMutability": "view",
      "type": "function"
    }
  ],
  "bytecode": "0x60a060405234801561000f575f5ffd5b50604051612c50380380612c5083398181016040528101906100319190610137565b5f73ffffffffffffffffffffffffffffffffffffffff168173ffffffffffffffffffffffffffffffffffffffff160361009f576040517f08c379a0000000000000000000000000000000000000000000000000000000008152600401610096906101bc565b60405180910390fd5b8073ffffffffffffffffffffffffffffffffffffffff1660808173ffffffffffffffffffffffffffffffffffffffff1681525050506101da565b5f5ffd5b5f73ffffffffffffffffffffffffffffffffffffffff82169050919050565b5f610106826100dd565b9050919050565b610116816100fc565b8114610120575f5ffd5b50565b5f815190506101318161010d565b92915050565b5f6020828403121561014c5761014b6100d9565b5b5f61015984828501610123565b91505092915050565b5f82825260208201905092915050565b7f496e76616c696420456e747279506f696e7400000000000000000000000000005f82015250565b5f6101a6601283610162565b91506101b182610172565b602082019050919050565b5f6020820190508181035f8301526101d38161019a565b9050919050565b608051612a576101f95f395f818161019a01526102cc0152612a575ff3fe608060405260043610610033575f3560e01c80636cbae157146100375780637d13271214610073578063b0d691fe146100a3575b5f5ffd5b348015610042575f5ffd5b5061005d60048036038101906100589190610359565b6100cd565b60405161006a919061043b565b60405180910390f35b61008d60048036038101906100889190610359565b610194565b60405161009a919061046a565b60405180910390f35b3480156100ae575f5ffd5b506100b76102ca565b6040516100c4919061046a565b60405180910390f35b60605f5f8373ffffffffffffffffffffffffffffffffffffffff1673ffffffffffffffffffffffffffffffffffffffff1681526020019081526020015f2080548060200260200160405190810160405280929190818152602001828054801561018857602002820191905f5260205f20905b815f9054906101000a900473ffffffffffffffffffffffffffffffffffffffff1673ffffffffffffffffffffffffffffffffffffffff168152602001906001019080831161013f575b50505050509050919050565b5f5f34837f00000000000000000000000000000000000000000000000000000000000000006040516101c5906102ee565b6101d0929190610483565b6040518091039082f09050801580156101eb573d5f5f3e3d5ffd5b5090505f5f8473ffffffffffffffffffffffffffffffffffffffff1673ffffffffffffffffffffffffffffffffffffffff1681526020019081526020015f2081908060018154018082558091505060019003905f5260205f20015f9091909190916101000a81548173ffffffffffffffffffffffffffffffffffffffff021916908373ffffffffffffffffffffffffffffffffffffffff1602179055507f2cab60edced952edaf28fa623f9ba124de2f1bc82a751826a386cea4a3528c7b81846040516102b9929190610483565b60405180910390a180915050919050565b7f000000000000000000000000000000000000000000000000000000000000000081565b612577806104ab83390190565b5f5ffd5b5f73ffffffffffffffffffffffffffffffffffffffff82169050919050565b5f610328826102ff565b9050919050565b6103388161031e565b8114610342575f5ffd5b50565b5f813590506103538161032f565b92915050565b5f6020828403121561036e5761036d6102fb565b5b5f61037b84828501610345565b91505092915050565b5f81519050919050565b5f82825260208201905092915050565b5f819050602082019050919050565b6103b68161031e565b82525050565b5f6103c783836103ad565b60208301905092915050565b5f602082019050919050565b5f6103e982610384565b6103f3818561038e565b93506103fe8361039e565b805f5b8381101561042e57815161041588826103bc565b9750610420836103d3565b925050600181019050610401565b5085935050505092915050565b5f6020820190508181035f83015261045381846103df565b905092915050565b6104648161031e565b82525050565b5f60208201905061047d5f83018461045b565b92915050565b5f6040820190506104965f83018561045b565b6104a3602083018461045b565b939250505056fe60a0604052604051612577380380612577833981810160405281019061002591906101e1565b60015f819055505f73ffffffffffffffffffffffffffffffffffffffff168273ffffffffffffffffffffffffffffffffffffffff160361009a576040517f08c379a000000000000000000000000000000000000000000000000000000000815260040161009190610279565b60405180910390fd5b5f73ffffffffffffffffffffffffffffffffffffffff168173ffffffffffffffffffffffffffffffffffffffff1603610108576040517f08c379a00000000000000000000000000000000000000000000000000000000081526004016100ff906102e1565b60405180910390fd5b8160015f6101000a81548173ffffffffffffffffffffffffffffffffffffffff021916908373ffffffffffffffffffffffffffffffffffffffff1602179055508073ffffffffffffffffffffffffffffffffffffffff1660808173ffffffffffffffffffffffffffffffffffffffff168152505050506102ff565b5f5ffd5b5f73ffffffffffffffffffffffffffffffffffffffff82169050919050565b5f6101b082610187565b9050919050565b6101c0816101a6565b81146101ca575f5ffd5b50565b5f815190506101db816101b7565b92915050565b5f5f604083850312156101f7576101f6610183565b5b5f610204858286016101cd565b9250506020610215858286016101cd565b9150509250929050565b5f82825260208201905092915050565b7f4f776e65722063616e6e6f74206265207a65726f0000000000000000000000005f82015250565b5f61026360148361021f565b915061026e8261022f565b602082019050919050565b5f6020820190508181035f83015261029081610257565b9050919050565b7f456e747279506f696e742063616e6e6f74206265207a65726f000000000000005f82015250565b5f6102cb60198361021f565b91506102d682610297565b602082019050919050565b5f6020820190508181035f8301526102f8816102bf565b9050919050565b6080516122526103255f395f818161074901528181610d330152610e4f01526122525ff3fe60806040526004361061009e575f3560e01c80638da5cb5b116100635780638da5cb5b14610173578063b0d691fe1461019d578063b61d27f6146101c7578063bbec5f23146101ef578063d0e30db01461022b578063f199a4e514610235576100a5565b8062f55d9d146100a957806301681a62146100d1578063359cbbc9146100f957806347e1da2a146101235780638c7b99991461014b576100a5565b366100a557005b5f5ffd5b3480156100b4575f5ffd5b506100cf60048036038101906100ca91906115fa565b61025d565b005b3480156100dc575f5ffd5b506100f760048036038101906100f291906115fa565b61043d565b005b348015610104575f5ffd5b5061010d61063c565b60405161011a919061163f565b60405180910390f35b34801561012e575f5ffd5b5061014960048036038101906101449190611763565b61064f565b005b348015610156575f5ffd5b50610171600480360381019061016c919061184e565b610a65565b005b34801561017e575f5ffd5b50610187610d0c565b6040516101949190611888565b60405180910390f35b3480156101a8575f5ffd5b506101b1610d31565b6040516101be9190611888565b60405180910390f35b3480156101d2575f5ffd5b506101ed60048036038101906101e89190611a0c565b610d55565b005b3480156101fa575f5ffd5b506102156004803603810190610210919061184e565b6110bc565b604051610222919061163f565b60405180910390f35b61023361115b565b005b348015610240575f5ffd5b5061025b6004803603810190610256919061184e565b61123d565b005b610265611439565b60015f9054906101000a900473ffffffffffffffffffffffffffffffffffffffff1673ffffffffffffffffffffffffffffffffffffffff163373ffffffffffffffffffffffffffffffffffffffff16146102f4576040517f08c379a00000000000000000000000000000000000000000000000000000000081526004016102eb90611ad2565b60405180910390fd5b600160149054906101000a900460ff1615610344576040517f08c379a000000000000000000000000000000000000000000000000000000000815260040161033b90611b3a565b60405180910390fd5b5f73ffffffffffffffffffffffffffffffffffffffff168173ffffffffffffffffffffffffffffffffffffffff16036103b2576040517f08c379a00000000000000000000000000000000000000000000000000000000081526004016103a990611ba2565b60405180910390fd5b5f4790505f8111156103c9576103c8828261147d565b5b60018060146101000a81548160ff0219169083151502179055508173ffffffffffffffffffffffffffffffffffffffff167f789ec66f21698ed1b990c0a8a8be99cf6f5fb8eb3826ee4ee9384870e8db25b1826040516104299190611bcf565b60405180910390a25061043a611543565b50565b610445611439565b60015f9054906101000a900473ffffffffffffffffffffffffffffffffffffffff1673ffffffffffffffffffffffffffffffffffffffff163373ffffffffffffffffffffffffffffffffffffffff16146104d4576040517f08c379a00000000000000000000000000000000000000000000000000000000081526004016104cb90611ad2565b60405180910390fd5b600160149054906101000a900460ff1615610524576040517f08c379a000000000000000000000000000000000000000000000000000000000815260040161051b90611b3a565b60405180910390fd5b5f73ffffffffffffffffffffffffffffffffffffffff168173ffffffffffffffffffffffffffffffffffffffff1603610592576040517f08c379a000000000000000000000000000000000000000000000000000000000815260040161058990611ba2565b60405180910390fd5b5f4790505f81116105d8576040517f08c379a00000000000000000000000000000000000000000000000000000000081526004016105cf90611c32565b60405180910390fd5b6105e2828261147d565b8173ffffffffffffffffffffffffffffffffffffffff167fc36b5179cb9c303b200074996eab2b3473eac370fdd7eba3bec636fe35109696826040516106289190611bcf565b60405180910390a250610639611543565b50565b600160149054906101000a900460ff1681565b610657611439565b5f60025f3373ffffffffffffffffffffffffffffffffffffffff1673ffffffffffffffffffffffffffffffffffffffff1681526020019081526020015f206001015f9054906101000a900460ff1680156106ef575060025f3373ffffffffffffffffffffffffffffffffffffffff1673ffffffffffffffffffffffffffffffffffffffff1681526020019081526020015f205f015442105b905060015f9054906101000a900473ffffffffffffffffffffffffffffffffffffffff1673ffffffffffffffffffffffffffffffffffffffff163373ffffffffffffffffffffffffffffffffffffffff16148061079757507f000000000000000000000000000000000000000000000000000000000000000073ffffffffffffffffffffffffffffffffffffffff163373ffffffffffffffffffffffffffffffffffffffff16145b8061079f5750805b6107de576040517f08c379a00000000000000000000000000000000000000000000000000000000081526004016107d590611c9a565b60405180910390fd5b600160149054906101000a900460ff161561082e576040517f08c379a000000000000000000000000000000000000000000000000000000000815260040161082590611b3a565b60405180910390fd5b848490508787905014801561084857508282905087879050145b610887576040517f08c379a000000000000000000000000000000000000000000000000000000000815260040161087e90611d02565b60405180910390fd5b5f5f90505b87879050811015610a19575f73ffffffffffffffffffffffffffffffffffffffff168888838181106108c1576108c0611d20565b5b90506020020160208101906108d6919061184e565b73ffffffffffffffffffffffffffffffffffffffff160361092c576040517f08c379a000000000000000000000000000000000000000000000000000000000815260040161092390611d97565b60405180910390fd5b5f5f89898481811061094157610940611d20565b5b9050602002016020810190610956919061184e565b73ffffffffffffffffffffffffffffffffffffffff1688888581811061097f5761097e611d20565b5b9050602002013587878681811061099957610998611d20565b5b90506020028101906109ab9190611dc1565b6040516109b9929190611e51565b5f6040518083038185875af1925050503d805f81146109f3576040519150601f19603f3d011682016040523d82523d5f602084013e6109f8565b606091505b509150915081610a0a57805160208201fd5b5050808060010191505061088c565b507f28fdae78f51e96c1904eba8bb88792a139c3822a608db2f07982f75fded0b5d687879050604051610a4c9190611bcf565b60405180910390a150610a5d611543565b505050505050565b60015f9054906101000a900473ffffffffffffffffffffffffffffffffffffffff1673ffffffffffffffffffffffffffffffffffffffff163373ffffffffffffffffffffffffffffffffffffffff1614610af4576040517f08c379a0000000000000000000000000000000000000000000000000000000008152600401610aeb90611ad2565b60405180910390fd5b600160149054906101000a900460ff1615610b44576040517f08c379a0000000000000000000000000000000000000000000000000000000008152600401610b3b90611b3a565b60405180910390fd5b5f73ffffffffffffffffffffffffffffffffffffffff168173ffffffffffffffffffffffffffffffffffffffff1603610bb2576040517f08c379a0000000000000000000000000000000000000000000000000000000008152600401610ba990611eb3565b60405180910390fd5b60025f8273ffffffffffffffffffffffffffffffffffffffff1673ffffffffffffffffffffffffffffffffffffffff1681526020019081526020015f206001015f9054906101000a900460ff1615610c3f576040517f08c379a0000000000000000000000000000000000000000000000000000000008152600401610c3690611f1b565b60405180910390fd5b5f610e1042610c4e9190611f66565b905060405180604001604052808281526020016001151581525060025f8473ffffffffffffffffffffffffffffffffffffffff1673ffffffffffffffffffffffffffffffffffffffff1681526020019081526020015f205f820151815f01556020820151816001015f6101000a81548160ff0219169083151502179055509050507f7c295719e6022b07c46be01a3356eaf476b3c55c68154634fd546ff749203fd28282604051610d00929190611f99565b60405180910390a15050565b60015f9054906101000a900473ffffffffffffffffffffffffffffffffffffffff1681565b7f000000000000000000000000000000000000000000000000000000000000000081565b610d5d611439565b5f60025f3373ffffffffffffffffffffffffffffffffffffffff1673ffffffffffffffffffffffffffffffffffffffff1681526020019081526020015f206001015f9054906101000a900460ff168015610df5575060025f3373ffffffffffffffffffffffffffffffffffffffff1673ffffffffffffffffffffffffffffffffffffffff1681526020019081526020015f205f015442105b905060015f9054906101000a900473ffffffffffffffffffffffffffffffffffffffff1673ffffffffffffffffffffffffffffffffffffffff163373ffffffffffffffffffffffffffffffffffffffff161480610e9d57507f000000000000000000000000000000000000000000000000000000000000000073ffffffffffffffffffffffffffffffffffffffff163373ffffffffffffffffffffffffffffffffffffffff16145b80610ea55750805b610ee4576040517f08c379a0000000000000000000000000000000000000000000000000000000008152600401610edb90611c9a565b60405180910390fd5b600160149054906101000a900460ff1615610f34576040517f08c379a0000000000000000000000000000000000000000000000000000000008152600401610f2b90611b3a565b60405180910390fd5b5f73ffffffffffffffffffffffffffffffffffffffff168473ffffffffffffffffffffffffffffffffffffffff1603610fa2576040517f08c379a0000000000000000000000000000000000000000000000000000000008152600401610f999061200a565b60405180910390fd5b82471015610fe5576040517f08c379a0000000000000000000000000000000000000000000000000000000008152600401610fdc90612072565b60405180910390fd5b5f5f8573ffffffffffffffffffffffffffffffffffffffff16858560405161100d91906120d8565b5f6040518083038185875af1925050503d805f8114611047576040519150601f19603f3d011682016040523d82523d5f602084013e61104c565b606091505b50915091508161105e57805160208201fd5b8573ffffffffffffffffffffffffffffffffffffffff167f18d8ee3dc897ae2b481b18c8a41287ea8a5974bd2c2e7c7de537ea3e44a153cd866040516110a49190611bcf565b60405180910390a25050506110b7611543565b505050565b5f60025f8373ffffffffffffffffffffffffffffffffffffffff1673ffffffffffffffffffffffffffffffffffffffff1681526020019081526020015f206001015f9054906101000a900460ff168015611154575060025f8373ffffffffffffffffffffffffffffffffffffffff1673ffffffffffffffffffffffffffffffffffffffff1681526020019081526020015f205f015442105b9050919050565b600160149054906101000a900460ff16156111ab576040517f08c379a00000000000000000000000000000000000000000000000000000000081526004016111a290611b3a565b60405180910390fd5b5f34116111ed576040517f08c379a00000000000000000000000000000000000000000000000000000000081526004016111e490612138565b60405180910390fd5b3373ffffffffffffffffffffffffffffffffffffffff167f2da466a7b24304f47e87fa2e1e5a81b9831ce54fec19055ce277ca2f39ba42c4346040516112339190611bcf565b60405180910390a2565b60015f9054906101000a900473ffffffffffffffffffffffffffffffffffffffff1673ffffffffffffffffffffffffffffffffffffffff163373ffffffffffffffffffffffffffffffffffffffff16146112cc576040517f08c379a00000000000000000000000000000000000000000000000000000000081526004016112c390611ad2565b60405180910390fd5b600160149054906101000a900460ff161561131c576040517f08c379a000000000000000000000000000000000000000000000000000000000815260040161131390611b3a565b60405180910390fd5b60025f8273ffffffffffffffffffffffffffffffffffffffff1673ffffffffffffffffffffffffffffffffffffffff1681526020019081526020015f206001015f9054906101000a900460ff166113a8576040517f08c379a000000000000000000000000000000000000000000000000000000000815260040161139f906121a0565b60405180910390fd5b5f60025f8373ffffffffffffffffffffffffffffffffffffffff1673ffffffffffffffffffffffffffffffffffffffff1681526020019081526020015f206001015f6101000a81548160ff0219169083151502179055507f6c183bc10f2169205130bc181065bd29672fcae84c11f7bf1cd710b88fdbbd448160405161142e9190611888565b60405180910390a150565b60025f5403611474576040517f3ee5aeb500000000000000000000000000000000000000000000000000000000815260040160405180910390fd5b60025f81905550565b804710156114c45747816040517fcf4791810000000000000000000000000000000000000000000000000000000081526004016114bb9291906121be565b60405180910390fd5b5f5f8373ffffffffffffffffffffffffffffffffffffffff16836040516114ea90612208565b5f6040518083038185875af1925050503d805f8114611524576040519150601f19603f3d011682016040523d82523d5f602084013e611529565b606091505b50915091508161153d5761153c8161154c565b5b50505050565b60015f81905550565b5f8151111561155d57805160208201fd5b6040517fd6bda27500000000000000000000000000000000000000000000000000000000815260040160405180910390fd5b5f604051905090565b5f5ffd5b5f5ffd5b5f73ffffffffffffffffffffffffffffffffffffffff82169050919050565b5f6115c9826115a0565b9050919050565b6115d9816115bf565b81146115e3575f5ffd5b50565b5f813590506115f4816115d0565b92915050565b5f6020828403121561160f5761160e611598565b5b5f61161c848285016115e6565b91505092915050565b5f8115159050919050565b61163981611625565b82525050565b5f6020820190506116525f830184611630565b92915050565b5f5ffd5b5f5ffd5b5f5ffd5b5f5f83601f84011261167957611678611658565b5b8235905067ffffffffffffffff8111156116965761169561165c565b5b6020830191508360208202830111156116b2576116b1611660565b5b9250929050565b5f5f83601f8401126116ce576116cd611658565b5b8235905067ffffffffffffffff8111156116eb576116ea61165c565b5b60208301915083602082028301111561170757611706611660565b5b9250929050565b5f5f83601f84011261172357611722611658565b5b8235905067ffffffffffffffff8111156117405761173f61165c565b5b60208301915083602082028301111561175c5761175b611660565b5b9250929050565b5f5f5f5f5f5f6060878903121561177d5761177c611598565b5b5f87013567ffffffffffffffff81111561179a5761179961159c565b5b6117a689828a01611664565b9650965050602087013567ffffffffffffffff8111156117c9576117c861159c565b5b6117d589828a016116b9565b9450945050604087013567ffffffffffffffff8111156117f8576117f761159c565b5b61180489828a0161170e565b92509250509295509295509295565b5f61181d826115a0565b9050919050565b61182d81611813565b8114611837575f5ffd5b50565b5f8135905061184881611824565b92915050565b5f6020828403121561186357611862611598565b5b5f6118708482850161183a565b91505092915050565b61188281611813565b82525050565b5f60208201905061189b5f830184611879565b92915050565b5f819050919050565b6118b3816118a1565b81146118bd575f5ffd5b50565b5f813590506118ce816118aa565b92915050565b5f5ffd5b5f601f19601f8301169050919050565b7f4e487b71000000000000000000000000000000000000000000000000000000005f52604160045260245ffd5b61191e826118d8565b810181811067ffffffffffffffff8211171561193d5761193c6118e8565b5b80604052505050565b5f61194f61158f565b905061195b8282611915565b919050565b5f67ffffffffffffffff82111561197a576119796118e8565b5b611983826118d8565b9050602081019050919050565b828183375f83830152505050565b5f6119b06119ab84611960565b611946565b9050828152602081018484840111156119cc576119cb6118d4565b5b6119d7848285611990565b509392505050565b5f82601f8301126119f3576119f2611658565b5b8135611a0384826020860161199e565b91505092915050565b5f5f5f60608486031215611a2357611a22611598565b5b5f611a308682870161183a565b9350506020611a41868287016118c0565b925050604084013567ffffffffffffffff811115611a6257611a6161159c565b5b611a6e868287016119df565b9150509250925092565b5f82825260208201905092915050565b7f4e6f74206f776e657200000000000000000000000000000000000000000000005f82015250565b5f611abc600983611a78565b9150611ac782611a88565b602082019050919050565b5f6020820190508181035f830152611ae981611ab0565b9050919050565b7f57616c6c65742069732064657374726f796564000000000000000000000000005f82015250565b5f611b24601383611a78565b9150611b2f82611af0565b602082019050919050565b5f6020820190508181035f830152611b5181611b18565b9050919050565b7f526563697069656e742063616e6e6f74206265207a65726f00000000000000005f82015250565b5f611b8c601883611a78565b9150611b9782611b58565b602082019050919050565b5f6020820190508181035f830152611bb981611b80565b9050919050565b611bc9816118a1565b82525050565b5f602082019050611be25f830184611bc0565b92915050565b7f4e6f2066756e647320746f2073776565700000000000000000000000000000005f82015250565b5f611c1c601183611a78565b9150611c2782611be8565b602082019050919050565b5f6020820190508181035f830152611c4981611c10565b9050919050565b7f4e6f7420617574686f72697a65640000000000000000000000000000000000005f82015250565b5f611c84600e83611a78565b9150611c8f82611c50565b602082019050919050565b5f6020820190508181035f830152611cb181611c78565b9050919050565b7f4172726179206c656e677468206d69736d6174636800000000000000000000005f82015250565b5f611cec601583611a78565b9150611cf782611cb8565b602082019050919050565b5f6020820190508181035f830152611d1981611ce0565b9050919050565b7f4e487b71000000000000000000000000000000000000000000000000000000005f52603260045260245ffd5b7f496e76616c6964207461726765740000000000000000000000000000000000005f82015250565b5f611d81600e83611a78565b9150611d8c82611d4d565b602082019050919050565b5f6020820190508181035f830152611dae81611d75565b9050919050565b5f5ffd5b5f5ffd5b5f5ffd5b5f5f83356001602003843603038112611ddd57611ddc611db5565b5b80840192508235915067ffffffffffffffff821115611dff57611dfe611db9565b5b602083019250600182023603831315611e1b57611e1a611dbd565b5b509250929050565b5f81905092915050565b5f611e388385611e23565b9350611e45838584611990565b82840190509392505050565b5f611e5d828486611e2d565b91508190509392505050565b7f496e76616c6964206b65790000000000000000000000000000000000000000005f82015250565b5f611e9d600b83611a78565b9150611ea882611e69565b602082019050919050565b5f6020820190508181035f830152611eca81611e91565b9050919050565b7f4b657920616c72656164792061637469766500000000000000000000000000005f82015250565b5f611f05601283611a78565b9150611f1082611ed1565b602082019050919050565b5f6020820190508181035f830152611f3281611ef9565b9050919050565b7f4e487b71000000000000000000000000000000000000000000000000000000005f52601160045260245ffd5b5f611f70826118a1565b9150611f7b836118a1565b9250828201905080821115611f9357611f92611f39565b5b92915050565b5f604082019050611fac5f830185611879565b611fb96020830184611bc0565b9392505050565b7f5461726765742063616e6e6f74206265207a65726f00000000000000000000005f82015250565b5f611ff4601583611a78565b9150611fff82611fc0565b602082019050919050565b5f6020820190508181035f83015261202181611fe8565b9050919050565b7f496e73756666696369656e742062616c616e63650000000000000000000000005f82015250565b5f61205c601483611a78565b915061206782612028565b602082019050919050565b5f6020820190508181035f83015261208981612050565b9050919050565b5f81519050919050565b8281835e5f83830152505050565b5f6120b282612090565b6120bc8185611e23565b93506120cc81856020860161209a565b80840191505092915050565b5f6120e382846120a8565b915081905092915050565b7f4d7573742073656e6420455448000000000000000000000000000000000000005f82015250565b5f612122600d83611a78565b915061212d826120ee565b602082019050919050565b5f6020820190508181035f83015261214f81612116565b9050919050565b7f4b6579206e6f74206163746976650000000000000000000000000000000000005f82015250565b5f61218a600e83611a78565b915061219582612156565b602082019050919050565b5f6020820190508181035f8301526121b78161217e565b9050919050565b5f6040820190506121d15f830185611bc0565b6121de6020830184611bc0565b9392505050565b50565b5f6121f35f83611e23565b91506121fe826121e5565b5f82019050919050565b5f612212826121e8565b915081905091905056fea2646970667358221220593f9d4f5e2ec16195d58308dc77dec723728076c6f3086723c480d1f304eeed64736f6c634300081c0033a26469706673582212205083ac99b26686268d47608b7f097db1c30801da27ef095377104262710e20ab64736f6c634300081c0033",
  "linkReferences": {},
  "deployedLinkReferences": {},
  "immutableReferences": {
    "1280": [
      {
        "length": 32,
        "start": 410
      },
      {
        "length": 32,
        "start": 716
      }
    ]
  },
  "inputSourceName": "project/contracts/GhostWalletFactory.sol",
  "buildInfoId": "solc-0_8_28-bdff6a4db7e271297c767f2a88379b4a7103fd8f"
}